:020000040800F2
:1000000000000220951C0008851B0008871B0008C3
:10001000891B00088B1B00088D1B000800000000D6
:100020000000000000000000000000008F1B00081E
:10003000911B000800000000931B0008951B00089E
:10004000E51C0008E51C0008E51C0008E51C00088C
:10005000E51C0008E51C0008E51C0008E51C00087C
:10006000E51C0008E51C00089D1B0008E51C0008B5
:10007000E51C0008E51C0008E51C0008E51C00085C
:10008000E51C0008E51C0008E51C00080000000055
:10009000000000000000000000000000E51C000857
:1000A000E51C0008E51C0008E51C0008E51C00082C
:1000B000E51C0008E51C0008A91B0008E51C000859
:1000C000E51C0008E51C0008E51C0008E51C00080C
:1000D000E51C0008E51C0008E51C00080000000005
:1000E000E51C0008E51C0008E51C000800000000F5
:1000F000000000000000000000000000E51C0008F7
:1001000000000000E51C0008E51C0008E51C0008D4
:1001100000000000000000000000000000000000DF
:10012000E51C0008E51C0008E51C0008E51C0008AB
:10013000E51C0008000000000000000000000000B6
:10014000000000000000000000000000B91B0008D3
:10015000E51C0008E51C0008E51C0008E51C00087B
:10016000E51C0008E51C000800000000000000007D
:10017000000000000000000000000000000000007F
:1001800000000000E51C0008000000000000000066
:08019000E51C0008E51C000855
:1001C00010B5054C237833B9044B13B10448AFF391
:1001D00000800123237010BD300B002000000000C0
:1001E00080C4000808B5034B1BB103490348AFF3B3
:1001F000008008BD00000000340B002080C400080F
:1002000081F0004102E000BF83F0004330B54FEAC7
:1002100041044FEA430594EA050F08BF90EA020F34
:100220001FBF54EA000C55EA020C7FEA645C7FEAC7
:10023000655C00F0E2804FEA5454D4EB5555B8BFEA
:100240006D420CDD2C4480EA020281EA030382EA5B
:10025000000083EA010180EA020281EA0303362DED
:1002600088BF30BD11F0004F4FEA01314FF4801CC0
:100270004CEA113102D0404261EB410113F0004FD2
:100280004FEA03334CEA133302D0524263EB430389
:1002900094EA050F00F0A780A4F10104D5F1200E27
:1002A0000DDB02FA0EFC22FA05F2801841F1000182
:1002B00003FA0EF2801843FA05F359410EE0A5F156
:1002C00020050EF1200E012A03FA0EFC28BF4CF087
:1002D000020C43FA05F3C01851EBE37101F000453D
:1002E00007D54FF0000EDCF1000C7EEB00006EEB4A
:1002F0000101B1F5801F1BD3B1F5001F0CD34908D4
:100300005FEA30004FEA3C0C04F101044FEA44522A
:1003100012F5800F80F09A80BCF1004F08BF5FEAB1
:10032000500C50F1000041EB045141EA050130BD91
:100330005FEA4C0C404141EB0101013C28BFB1F5A3
:10034000801FE9D291F0000F04BF01460020B1FAEE
:1003500081F308BF2033A3F10B03B3F120020CDAC1
:100360000C3208DD02F1140CC2F10C0201FA0CF09F
:1003700021FA02F10CE002F11402D8BFC2F1200C04
:1003800001FA02F120FA0CFCDCBF41EA0C019040BA
:10039000E41AA2BF01EB0451294330BD6FEA040403
:1003A0001F3C1CDA0C340EDC04F11404C4F12002EE
:1003B00020FA04F001FA02F340EA030021FA04F300
:1003C00045EA030130BDC4F10C04C4F1200220FA57
:1003D00002F001FA04F340EA0300294630BD21FA95
:1003E00004F0294630BD94F0000F83F4801306BF5B
:1003F00081F480110134013D4EE77FEA645C18BF4F
:100400007FEA655C29D094EA050F08BF90EA020FE5
:1004100005D054EA000C04BF1946104630BD91EADD
:10042000030F1EBF0021002030BD5FEA545C05D1E0
:100430004000494128BF41F0004130BD14F580041F
:100440003CBF01F5801130BD01F0004545F0FE4193
:1004500041F470014FF0000030BD7FEA645C1ABFC8
:10046000194610467FEA655C1CBF0B46024650EAFF
:10047000013406BF52EA033591EA030F41F400212B
:1004800030BD00BF90F0000F04BF0021704730B5B1
:100490004FF4806404F132044FF000054FF0000186
:1004A00050E700BF90F0000F04BF0021704730B547
:1004B0004FF4806404F1320410F0004548BF40421C
:1004C0004FF000013EE700BF42004FEAE2014FEA71
:1004D00031014FEA02701FBF12F07F4393F07F4F4C
:1004E00081F06051704732F07F4208BF704793F04F
:1004F0007F4F04BF41F40021704730B54FF4607462
:1005000001F0004521F000411CE700BF50EA010264
:1005100008BF704730B54FF000050AE050EA01020D
:1005200008BF704730B511F0004502D5404261EB7D
:1005300041014FF4806404F132045FEA915C3FF4BE
:10054000D8AE4FF003025FEADC0C18BF03325FEA5B
:10055000DC0C18BF033202EBDC02C2F1200300FA0C
:1005600003FC20FA02F001FA03FE40EA0E0021FA31
:1005700002F11444BDE600BF80F0004002E000BF7D
:1005800081F0004142001FBF5FEA410392EA030F7E
:100590007FEA226C7FEA236C6AD04FEA1262D2EBC8
:1005A0001363C1BFD218414048404140B8BF5B42CD
:1005B000192B88BF704710F0004F40F4000020F066
:1005C0007F4018BF404211F0004F41F4000121F07C
:1005D0007F4118BF494292EA030F3FD0A2F10102C6
:1005E00041FA03FC10EB0C00C3F1200301FA03F104
:1005F00000F0004302D5494260EB4000B0F5000F27
:1006000013D3B0F1807F06D340084FEA310102F1E5
:100610000102FE2A51D2B1F1004F40EBC25008BF97
:1006200020F0010040EA03007047490040EB000061
:10063000013A28BFB0F5000FEDD2B0FA80FCACF162
:10064000080CB2EB0C0200FA0CF0AABF00EBC2508F
:1006500052421843BCBFD0401843704792F0000F7D
:1006600081F4000106BF80F400000132013BB5E7D0
:100670004FEA41037FEA226C18BF7FEA236C21D046
:1006800092EA030F04D092F0000F08BF08467047AB
:1006900090EA010F1CBF0020704712F07F4F04D179
:1006A000400028BF40F00040704712F100723CBF8C
:1006B00000F50000704700F0004343F0FE4040F4B6
:1006C000000070477FEA226216BF08467FEA236374
:1006D0000146420206BF5FEA412390EA010F40F45F
:1006E000800070474FF0000304E000BF10F00043AB
:1006F00048BF40425FEA000C08BF704743F0964392
:1007000001464FF000001CE050EA010208BF7047AC
:100710004FF000030AE000BF50EA010208BF704733
:1007200011F0004302D5404261EB41015FEA010C48
:1007300002BF84460146002043F0B64308BFA3F140
:100740008053A3F50003BCFA8CF2083AA3EBC25322
:1007500010DB01FA02FC634400FA02FCC2F1200241
:10076000BCF1004F20FA02F243EB020008BF20F078
:100770000100704702F1200201FA02FCC2F12002DE
:1007800050EA4C0021FA02F243EB020008BF20EAD3
:10079000DC70704753B94AB9002908BF00281CBF54
:1007A0004FF0FF314FF0FF3000F06CB9ADF1080CA5
:1007B0006DE904CE00F006F8DDF804E0DDE902237F
:1007C00004B070472DE9F047089E0D4604468E465A
:1007D000002B40F082808A42174646D9B2FA82F254
:1007E0004AB1C2F1200105FA02F320FA01F1974063
:1007F00041EA030E94404FEA1748230CBEFBF8FC75
:10080000B9B208FB1CEE43EA0E430CFB01F0984220
:100810000AD9FB180CF1FF3580F01681984240F29E
:100820001381ACF1020C3B441B1AA4B2B3FBF8F0E9
:1008300008FB103344EA034400FB01F1A14209D94B
:100840003C1900F1FF3380F00181A14240F2FE80AB
:1008500002383C44641A40EA0C4000211EB1D440E6
:100860000023C6E90043BDE8F08702B9FFDEB2FA13
:1008700082F2002A4FD1CB1B4FEA174E1FFA87F89E
:100880000121B3FBFEFC250C0EFB1C3345EA03459E
:1008900008FB0CF3AB4207D97D190CF1FF3002D2F3
:1008A000AB4200F2E7808446ED1AA3B2B5FBFEF03E
:1008B0000EFB105543EA054408FB00F8A04507D994
:1008C0003C1900F1FF3302D2A04500F2D780184650
:1008D000A4EB080440EA0C40C0E78B4208D9002E84
:1008E00000F0AF800021C6E900050846BDE8F087AA
:1008F000B3FA83F100294BD1AB4202D3824200F21A
:10090000B780841A65EB030301209E46002EAAD00F
:10091000C6E9004EA7E7C2F1200C01FA02F39740A6
:1009200020FA0CF04FEA174E21FA0CFC1843BCFBDE
:10093000FEF1050C0EFB11CC1FFA87F845EA0C45B9
:1009400001FB08F3AB4204FA02F409D97D1901F165
:10095000FF3C80F08B80AB4240F2888002393D44FE
:10096000EB1A85B2B3FBFEF00EFB103345EA0345EC
:1009700000FB08F3AB4207D97D1900F1FF3C71D2AF
:10098000AB426FD902383D44EB1A40EA014178E7A7
:10099000C1F1200C8B4022FA0CF71F4320FA0CF413
:1009A00005FA01F34FEA174E25FA0CF51C43230C08
:1009B000B5FBFEF91FFA87F80EFB195543EA05450A
:1009C00009FB08FAAA4502FA01F200FA01F308D974
:1009D0007D1909F1FF3047D2AA4545D9A9F102098D
:1009E0003D44A5EB0A05A4B2B5FBFEF00EFB105585
:1009F00044EA054400FB08F8A04507D93C1900F17A
:100A0000FF352DD2A0452BD902383C4440EA09409D
:100A1000A4EB0804A0FB02894C45C6464D4619D3F9
:100A200016D05EB1B3EB0E0264EB050404FA0CFCC5
:100A3000CA404CEA0202CC40C6E900240021BDE8CD
:100A4000F087314630460EE7AC46EDE6184601E742
:100A50004345E6D2B8EB020E69EB07050138E0E743
:100A60002846D3E760468FE78146BAE7614677E7D5
:100A700008464BE7ACF1020C3D4415E702383C4414
:100A800026E700BF704700BF000000000000000024
:100A900001F0FF01102A2BDB10F0070F08D010F82F
:100AA000013B013A8B422DD010F0070F42B3F6D133
:100AB000F0B441EA012141EA014122F007047FF04C
:100AC00000070023F0E80256083C85EA010586EAA3
:100AD000010685FA47F5A3FA87F586FA47F6A5FADF
:100AE00087F68EB9EED1F0BC01F0FF0102F00702EB
:100AF00032B110F8013B013A83EA010313B1F8D196
:100B00000020704701387047002D06BF3546033876
:100B1000073815F0010F07D1013015F4807F02BFAF
:100B2000013015F4C03F0130F0BC0138704700BF00
:100B3000844641EA000313F003036DD1403A41D3E8
:100B400051F8043B40F8043B51F8043B40F8043BA7
:100B500051F8043B40F8043B51F8043B40F8043B97
:100B600051F8043B40F8043B51F8043B40F8043B87
:100B700051F8043B40F8043B51F8043B40F8043B77
:100B800051F8043B40F8043B51F8043B40F8043B67
:100B900051F8043B40F8043B51F8043B40F8043B57
:100BA00051F8043B40F8043B51F8043B40F8043B47
:100BB00051F8043B40F8043B51F8043B40F8043B37
:100BC000403ABDD2303211D351F8043B40F8043BD7
:100BD00051F8043B40F8043B51F8043B40F8043B17
:100BE00051F8043B40F8043B103AEDD20C3205D3E7
:100BF00051F8043B40F8043B043AF9D2043208D0DF
:100C0000D2071CBF11F8013B00F8013B01D30B8850
:100C100003806046704700BF082A13D38B078DD02E
:100C200010F003038AD0C3F10403D21ADB071CBF00
:100C300011F8013B00F8013B80D331F8023B20F86A
:100C4000023B7BE7043AD9D3013A11F8013B00F8A3
:100C5000013BF9D20B7803704B7843708B7883702B
:100C60006046704700000000000000000000000027
:100C70000000000000000000000000000000000074
:100C800090F800F06DE9024520F007016FF0000CCC
:100C900010F0070491F820F040F049804FF0000474
:100CA0006FF00700D1E9002391F840F000F108004F
:100CB00082FA4CF2A4FA8CF283FA4CF3A2FA8CF387
:100CC0004BBBD1E9022382FA4CF200F10800A4FAEE
:100CD0008CF283FA4CF3A2FA8CF3E3B9D1E9042342
:100CE00082FA4CF200F10800A4FA8CF283FA4CF379
:100CF000A2FA8CF37BB9D1E9062301F1200182FA33
:100D00004CF200F10800A4FA8CF283FA4CF3A2FA38
:100D10008CF3002BC6D0002A04BF04301A4612BA46
:100D2000B2FA82F2FDE8024500EBD2007047D1E949
:100D3000002304F00305C4F100004FEAC50514F0D8
:100D4000040F91F840F00CFA05F562EA05021CBFA9
:100D500063EA050362464FF00004A9E770B54FF05F
:100D6000FF0C4CF4E06C1CEA11541DBF1CEA135537
:100D700094EA0C0F95EA0C0F00F0DEF82C4481EA9F
:100D8000030621EA4C5123EA4C5350EA013518BFBF
:100D900052EA033541F4801143F4801338D0A0FBAC
:100DA00002CE4FF00005E1FB02E506F00042E0FB59
:100DB00003E54FF00006E1FB03569CF0000F18BF5F
:100DC0004EF0010EA4F1FF04B6F5007F64F5407407
:100DD00004D25FEA4E0E6D4146EB060642EAC6219A
:100DE00041EA55514FEAC52040EA5E504FEACE2E07
:100DF000B4F1FD0C88BFBCF5E06F1ED8BEF1004F0A
:100E000008BF5FEA500E50F1000041EB045170BD85
:100E100006F0004646EA010140EA020081EA0301C9
:100E2000B4EB5C04C2BFD4EB0C0541EA045170BDC5
:100E300041F480114FF0000E013C00F3AB8014F13F
:100E4000360FDEBF002001F0004170BDC4F1000488
:100E5000203C35DA0C341BDC04F11404C4F1200509
:100E600000FA05F320FA04F001FA05F240EA020064
:100E700001F0004221F0004110EBD37021FA04F69A
:100E800042EB06015EEA430E08BF20EAD37070BD54
:100E9000C4F10C04C4F1200500FA04F320FA05F0B3
:100EA00001FA04F240EA020001F0004110EBD370B5
:100EB00041F100015EEA430E08BF20EAD37070BD25
:100EC000C4F1200500FA05F24EEA020E20FA04F3FE
:100ED00001FA05F243EA020321FA04F001F00041AD
:100EE00021FA04F220EA020000EBD3705EEA430E1E
:100EF00008BF20EAD37070BD94F0000F0FD101F04D
:100F00000046400041EB010111F4801F08BF013C85
:100F1000F7D041EA060195F0000F18BF704703F0C3
:100F20000046520043EB030313F4801F08BF013D4A
:100F3000F7D043EA0603704794EA0C0F0CEA135506
:100F400018BF95EA0C0F0CD050EA410618BF52EAC0
:100F50004306D1D181EA030101F000414FF00000C6
:100F600070BD50EA410606BF1046194652EA4306D4
:100F700019D094EA0C0F02D150EA013613D195EA48
:100F80000C0F05D152EA03361CBF104619460AD190
:100F900081EA030101F0004141F0FE4141F470019A
:100FA0004FF0000070BD41F0FE4141F4780170BD8A
:100FB00070B54FF0FF0C4CF4E06C1CEA11541DBFEF
:100FC0001CEA135594EA0C0F95EA0C0F00F0A7F8F1
:100FD000A4EB050481EA030E52EA03354FEA01311E
:100FE00000F088804FEA03334FF0805545EA131331
:100FF00043EA12634FEA022245EA111545EA1065F9
:101000004FEA00260EF000419D4208BF964244F18F
:10101000FD0404F5407402D25B084FEA3202B61AAE
:1010200065EB03055B084FEA32024FF480104FF482
:10103000002CB6EB020E75EB030E22BFB61A7546F6
:1010400040EA0C005B084FEA3202B6EB020E75EB89
:10105000030E22BFB61A754640EA5C005B084FEAF1
:101060003202B6EB020E75EB030E22BFB61A7546BE
:1010700040EA9C005B084FEA3202B6EB020E75EBC9
:10108000030E22BFB61A754640EADC0055EA060E8A
:1010900018D04FEA051545EA16754FEA06164FEACD
:1010A000C30343EA52734FEAC2025FEA1C1CC0D179
:1010B00011F4801F0BD141EA00014FF000004FF006
:1010C000004CB6E711F4801F04BF01430020B4F1C7
:1010D000FD0C88BFBCF5E06F3FF6AFAEB5EB030C7F
:1010E00004BFB6EB020C5FEA500C50F1000041EB7C
:1010F000045170BD0EF0004E4EEA113114EB5C0449
:10110000C2BFD4EB0C0541EA045170BD41F480111B
:101110004FF0000E013C90E645EA060E8DE60CEA23
:10112000135594EA0C0F08BF95EA0C0F3FF43BAF40
:1011300094EA0C0F0AD150EA01347FF434AF95EAF7
:101140000C0F7FF425AF104619462CE795EA0C0FDB
:1011500006D152EA03353FF4FDAE1046194622E7A8
:1011600050EA410618BF52EA43067FF4C5AE50EA82
:1011700041047FF40DAF52EA43057FF4EBAE12E772
:101180004FF0FF3C06E000BF4FF0010C02E000BF53
:101190004FF0010C4DF804CD4FEA410C7FEA6C5C36
:1011A0004FEA430C18BF7FEA6C5C1BD001B050EAD9
:1011B000410C0CBF52EA430C91EA030F02BF90EAC4
:1011C000020F0020704710F1000F91EA030F58BF83
:1011D000994208BF90422CBFD8176FEAE37040F0E5
:1011E000010070474FEA410C7FEA6C5C02D150EA83
:1011F000013C07D14FEA430C7FEA6C5CD6D152EA3E
:10120000033CD3D05DF8040B704700BF8446104602
:1012100062468C461946634600E000BF01B5FFF701
:10122000B7FF002848BF10F1000F01BD4DF808EDD1
:10123000FFF7F4FF0CBF012000205DF808FB00BFA2
:101240004DF808EDFFF7EAFF34BF012000205DF8FC
:1012500008FB00BF4DF808EDFFF7E0FF94BF012049
:1012600000205DF808FB00BF4DF808EDFFF7CEFF4A
:1012700094BF012000205DF808FB00BF4DF808ED89
:10128000FFF7C4FF34BF012000205DF808FB00BF5A
:101290004FEA410C7FEA6C5C02D150EA013C0AD172
:1012A0004FEA430C7FEA6C5C02D152EA033C02D164
:1012B0004FF0000070474FF0010070474FEA4102C5
:1012C00012F5001215D211D56FF47873B3EB625298
:1012D00012D94FEAC12343F0004343EA505311F0BF
:1012E000004F23FA02F018BF404270474FF0000051
:1012F000704750EA013005D111F0004008BF6FF08F
:10130000004070474FF00000704700BF2DE9F043E8
:101310008DB000240794089409940A940B940194C6
:10132000514B1A6B42F010021A631A6B02F0100252
:101330000192019A02941A6B42F004021A631A6B2A
:1013400002F004020292029A03941A6B42F08002A5
:101350001A631A6B02F080020392039A04941A6BC8
:1013600042F001021A631A6B02F001020492049A1D
:1013700005941A6B42F002021A631A6B02F0020221
:101380000592059A06941A6B42F008021A631B6BC9
:1013900003F008030693069B344E2246082130468C
:1013A00000F04DFEDFF8D49001221146484600F0CF
:1013B00046FE2F4F22464FF21001384600F03FFE06
:1013C000042307930894099407A9304600F05CFDB4
:1013D000082307930125089509940A9407A9304624
:1013E00000F052FD10230793224B0893099407A99C
:1013F000304600F049FD22230793DFF88480CDF8C2
:101400002080099407A9304600F03EFD0795089515
:1014100009940A9407A9484600F036FD0795CDF8CF
:101420002080099407A9144800F02EFD4FF2100304
:101430000793089509940A9407A9384600F024FDFB
:10144000202307930894099407A9384600F01CFD4F
:10145000224621460A2000F0BFFC0A2000F0F0FCE2
:101460000DB0BDE8F08300BF00380240001002401C
:10147000000C024000001110000002400008024071
:101480000000121000B587B08DF8172040000A2325
:101490000293012301930DF1170200920A4600F016
:1014A000FE01034801F00EF907B05DF804FB00BF30
:1014B0005C0C002000B585B0012B01D919280DD096
:1014C000400002930193009201230A4600F0FE01BE
:1014D000044801F0A9F905B05DF804FB41F0800172
:1014E000EEE700BF5C0C002008B50A2000F04EFCBF
:1014F00073224F211E20FFF7C5FF642000F046FC39
:10150000372220211920FFF7BDFF102222211920A8
:10151000FFF7B8FF982223211920FFF7B3FF08BD7A
:10152000102800D070472DE9F04784B04FF40051E7
:101530002B4800F08AFD06232A4A28211920FFF7AC
:10154000B9FF294B1B78012B02D004B0BDE8F0870E
:10155000DFF89080B8F90000FFF7C8F8FEF7B4FF95
:1015600004460D46B8F90200FFF7C0F8FEF7ACFFDD
:1015700006460F46B8F90400FFF7B8F8FEF7A4FFD7
:101580008046894614A3D3E9002320462946FFF765
:10159000E5FB04460D46DFF858A00FA3D3E900236E
:1015A00040464946FFF7DAFBCDE902010AA3D3E939
:1015B000002330463946FFF7D1FBCDE90001224632
:1015C0002B460A49504605F091FB81B2504604F083
:1015D0002BFEBAE7AFF30080691D554D10751F3F14
:1015E000000C0240D80D0020DE0D002098C4000839
:1015F0004C0B00200268174B9A4200D0704770B520
:101600000121154800F014FD20B1144A136801337C
:10161000136070BD114B1B68322B03D80F4B002297
:101620001A60F6E74FF480410D4800F00EFD0D4BB7
:101630001B781BB90B4B01221A70EFE70A4E344698
:101640000A4D0FCD0FC42B6823601321304604F0E0
:10165000EBFDE3E70008004000000240580C0020CA
:10166000000C0240DE0D00204C0B0020C8C4000816
:1016700072B6FEE708B50A480A4B03600A4B43609E
:101680004FF4804282600023C36002614361836142
:10169000C361036200F038FF00B908BDFFF7E8FF3F
:1016A0005C0C002000540040801A060008B50B486E
:1016B0000B4B03604FF40073436000238360C360EF
:1016C0000361084A42618361C3610123036201F03F
:1016D0001DFA00B908BDFFF7CBFF00BFB00C00201A
:1016E000003800400077010008B50A480A4B036043
:1016F0004FF40072426000238360C3600261074AB6
:1017000042618361C361036201F000FA00B908BD60
:10171000FFF7AEFFF80C0020003C0040007701000E
:1017200008B50D480D4B03604FF4827343600023EE
:101730008360C360036143614FF400728261C361DF
:101740000362436283620A23C36202F0A7FE00B908
:1017500008BDFFF78DFF00BF400D002000300140A5
:1017600000B587B00023029303930493059300937D
:1017700001931348134A02605322426083604FF47E
:101780007A72C2600361836103F016F890B94FF476
:101790008053029302A90A4803F033F860B900238A
:1017A000009301936946064803F098F830B907B0F2
:1017B0005DF804FBFFF75CFFFFF75AFFFFF758FFE8
:1017C000980D00200008004000B59BB03022002199
:1017D0000EA805F01DFA002309930A930B930C93AE
:1017E0000D93039304930593069307930893019332
:1017F000264A116C41F080511164126C02F0805243
:101800000192019A0293224B1A6842F440421A60F4
:101810001B6803F440430293029B01230E934FF491
:1018200080330F93022314934FF480031593042302
:101830001693A82217921893072319930EA802F063
:1018400017FAE0B90F23099302210A9100230B93A1
:101850004FF480520C920D9309A802F065FC80B9F8
:1018600001230393C82305930523049302230693BE
:1018700003A802F01FFD30B91BB05DF804FBFFF7B1
:10188000F7FEFFF7F5FEFFF7F3FE00BF003802405A
:101890000070004008B500F04DFAFFF795FFFFF724
:1018A00035FDFFF7E7FEFFF701FFFFF71DFFFFF72D
:1018B00037FFFFF755FF04F065FC094802F05BFEB7
:1018C000084B1A68136843F001031360FFF70CFE1E
:1018D0000623054A28211920FFF7ECFDFEE700BF8B
:1018E000980D00205C0C0020D80D002000B583B0BE
:1018F000002100910C4B5A6C42F480425A645A6C9D
:1019000002F480420092009A01911A6C42F08052D7
:101910001A641B6C03F080530193019B072000F0B5
:1019200049FA03B05DF804FB0038024030B589B0D5
:101930000023039304930593069307930268154BC2
:101940009A4201D009B030BD00250195124C236B9D
:1019500043F002032363236B03F002030193019B13
:101960004FF41073039312230493012305930695F8
:101970000423079303A9094800F086FA0295236C13
:1019800043F400132364236C03F400130293029BBB
:10199000D8E700BF00540040003802400004024075
:1019A000F0B58DB000230793089309930A930B9326
:1019B0000368424A934204D0414A934245D00DB055
:1019C000F0BD002401943F4B1A6C42F480421A642B
:1019D0001A6C02F480420192019A02941A6B42F04E
:1019E00004021A631A6B02F004020292029A039430
:1019F0001A6B42F002021A631B6B03F0020303939B
:101A0000039B042307930225089509940A9406234F
:101A10000B932D4F07A9384600F036FA0823079399
:101A2000089509940A9405260B9607A9384600F0F4
:101A30002BFA4FF4A0530793089509940A940B9638
:101A400007A9224800F020FAB9E7002404941D4BAE
:101A50001A6C42F400421A641A6C02F400420492B6
:101A6000049A05941A6B42F001021A631A6B02F091
:101A700001020592059A06941A6B42F004021A6359
:101A80001B6B03F004030693069B102307930226A7
:101A9000089609940A9406250B9507A90C4800F0AE
:101AA000F3F94FF4A4530793089609940A940B95FD
:101AB00007A9054800F0E8F981E700BF00380040B9
:101AC000003C004000380240000802400004024090
:101AD0000000024000B589B00023039304930593EE
:101AE000069307930268154B9A4202D009B05DF83D
:101AF00004FB0022019203F58433596C41F48051B8
:101B00005964596C01F48051019101990292196B49
:101B100041F0010119631B6B03F001030293029B67
:101B2000E0230393022304930592032306930523E2
:101B3000079303A9024800F0A7F9D7E70030014056
:101B40000000024002680E4B9A4200D0704700B578
:101B500083B00021019103F50C331A6C42F00402AA
:101B60001A641B6C03F004030193019B0A461E20B8
:101B700000F032F91E2000F063F903B05DF804FBB9
:101B800000080040FEE7FEE7FEE7FEE7FEE77047DD
:101B90007047704708B500F0E7F808BD08B5102099
:101BA00000F05CFA08BD000008B5024802F0F8FC3D
:101BB00008BD00BF980D002008B5024801F066FC82
:101BC00008BD00BFBC2200200120704708B504F00A
:101BD0002BFD162303604FF0FF3008BD08B54FF012
:101BE000FF31FFF7F3FFFEE770B50C461646002500
:101BF000B54207DAAFF30080214601F8010B013549
:101C00000C46F5E7304670BD70B50C46164600250B
:101C1000B54205DA14F8010BAFF300800135F7E7A0
:101C2000304670BD4FF0FF3070474FF400534B60AB
:101C300000207047012070470020704710B5034610
:101C40000C4A0D490D48006840B10C480068034437
:101C5000521A934206D8094A136010BD0748084C2F
:101C60000460F2E704F0E0FC0C2303604FF0FF3067
:101C7000F3E700BF0000022000040000E00D002098
:101C800020270020024B4FF000629A60704700BF8F
:101C900000ED00E0DFF834D0002103E00C4B5B588E
:101CA000435004310B480C4B42189A42F6D30B4A6E
:101CB00002E0002342F8043B094B9A42F9D3FFF7B4
:101CC000E1FF04F0B7FCFFF7E5FD704700000220DC
:101CD000FCC8000800000020300B0020300B002062
:101CE00020270020FEE7000010B504460E4B1878B0
:101CF0004FF47A73B3FBF0F30C4A1068B0FBF3F0C7
:101D000000F0ACF868B90F2C01D901200AE00022DC
:101D100021464FF0FF3000F05FF8054B1C600020BB
:101D200000E0012010BD00BF0400002000000020E2
:101D30000800002008B50B4B1A6842F400721A60C4
:101D40001A6842F480621A601A6842F480721A605B
:101D5000032000F02FF80020FFF7C6FFFFF7C6FDB5
:101D6000002008BD003C0240034A1168034B1B7869
:101D70000B441360704700BFE40D002004000020F6
:101D8000014B1868704700BFE40D002038B50446C9
:101D9000FFF7F6FF0546B4F1FF3F02D0044B1B7876
:101DA0001C44FFF7EDFF401BA042FAD338BD00BF33
:101DB00004000020074AD36823F4E0631B041B0CD3
:101DC000000200F4E060034343F0BF6343F40033D8
:101DD000D360704700ED00E030B4174BDB68C3F30D
:101DE0000223C3F10704042C28BF04241D1D062D63
:101DF00018D9033B4FF0FF3505FA04F421EA04013A
:101E0000994005FA03F322EA0303194300280BDB88
:101E10000901C9B200F1604000F5614080F800138B
:101E200030BC70470023E5E700F00F000901C9B29C
:101E3000024B1954F4E700BF00ED00E014ED00E0A0
:101E4000002807DB00F01F02400901239340024AEB
:101E500042F82030704700BF00E100E00138B0F1E7
:101E6000807F0AD2064B5860064AF02182F8231080
:101E70000020986007221A6070470120704700BF59
:101E800010E000E000ED00E000230F2B00F2C7801F
:101E9000F0B583B039E0042200E00022B2403A43BA
:101EA00002345F4E46F824205E4A1468EA4324EA6E
:101EB00005064F6817F4803F01D045EA0406594CE7
:101EC0002660646802EA04064F6817F4003F01D0F8
:101ED00045EA0406534C6660A46802EA04064F68AB
:101EE00017F4801F01D045EA04064E4CA660E46852
:101EF00022404E6816F4001F01D045EA0402494C06
:101F0000E26001330F2B00F2888001229A400C68B6
:101F100004EA020532EA0404F3D14C68661E012E7D
:101F200003D9112C01D0122C12D186685F00032432
:101F3000BC4026EA0406CC68BC4034438460466852
:101F400026EA02064C68C4F300129A40324342600B
:101F5000C7685E000324B440E24327EA04078C68A4
:101F6000B4403C43C4604C68022C01D0122C13D105
:101F7000DF08083750F827E003F007044FEA840C25
:101F80000F2404FA0CF42EEA040E0C6904FA0CF483
:101F900044EA0E0440F82740046814404A6802F0FE
:101FA0000302B240224302604A6812F0805FA8D068
:101FB000002201921C4A546C44F480445464526CD4
:101FC00002F480420192019A9C08A61C144A52F81D
:101FD000267003F0030296000F22B24027EA0207A0
:101FE000124A90423FF459AF02F5806290420ED0FF
:101FF00002F5806290420CD002F5806290420AD0D5
:1020000002F5806290423FF446AF072246E7012284
:1020100044E7022242E7032240E703B0F0BD7047E5
:1020200000380140003C01400038024000000240FE
:102030000369194201D001207047002070470AB19E
:1020400081617047090481617047436931EA030384
:1020500001D08161704709048161704708B5054B63
:102060005B69034200D108BD024B5861FFF758FA83
:10207000F9E700BF003C014003685A6912F4806F21
:1020800001D1002070476FF480625A61002303631E
:10209000202280F83D2080F83E30026C42F004029D
:1020A000026480F83C30012070472DE9F04107467A
:1020B0000D4690461E4622E0FFF762FE069BC01AC0
:1020C000B04200D8DEB900233B63202287F83D20D0
:1020D00087F83E303A6C42F020023A6487F83C3090
:1020E00001201AE03B689C6925EA0404A4B2B4FA12
:1020F00084F46409A0450FD1B6F1FF3FDCD1C5F3EC
:102100000743012BEED13B685C6925EA0404A4B2C5
:10211000B4FA84F46409EDE70020BDE8F0812DE90C
:10212000F04105460E46174698463DE01A6842F4CF
:1021300000721A602B686FF480625A6100232B636F
:10214000202285F83D2085F83E302A6C42F00402BA
:102150002A6485F83C30012034E0FFF711FEA0EB43
:102160000800B84200D8FFB900232B63202285F86D
:102170003D2085F83E302A6C42F020022A6485F822
:102180003C3001201EE02B689C6926EA0404A4B2BE
:10219000003C18BF0124A4B12B685A6912F4806F67
:1021A000C4D1B7F1FF3FD8D1C6F30743012BEAD121
:1021B0002B685C6926EA0404A4B2003C18BF012421
:1021C000E9E70020BDE8F08170B504460D461646EB
:1021D00023685B6913F0800F1CD12046FFF74CFF8A
:1021E000D0B9B5F1FF3FF3D0FFF7CAFD801BA8427D
:1021F00001D8002DECD100232363202284F83D2058
:1022000084F83E30226C42F02002226484F83C3094
:10221000012000E0002070BD0120FCE72DE9F04323
:1022200085B004460D4691461F46DDF830800D9E70
:102230000368196841F480711960009643460022D2
:102240004FF00111FFF731FF60B9236805F0FE057B
:102250001D613346424626492046FFF760FF68B1BC
:10226000012008E023681B6813F4807F02D04FF43C
:1022700000732364032005B0BDE8F08300230393BB
:1022800023685A6903929B690393039B3246414634
:102290002046FFF799FF30B9012F0FD123685FFA6D
:1022A00089F61E61E7E7236C042B01D00120E2E7E9
:1022B0002268136843F400731360F7E723684FEA5A
:1022C00019221A61324641462046FFF77DFF20B9A8
:1022D00023685FFA89F61E61CDE7236C042B01D0D9
:1022E0000120C8E72268136843F400731360F7E71E
:1022F000020001002DE9F04784B004460D46164661
:1023000099460C9FDDF834800268136843F48063BB
:1023100013600368196841F480711960CDF800807A
:102320003B4600224FF00111FFF7BFFE70B95FFA84
:1023300085FA236805F0FE051D6143463A4641498A
:102340002046FFF7ECFE68B1012008E023681B6817
:1023500013F4807F02D04FF400732364032004B091
:10236000BDE8F0870023039323685A6903929B69B1
:102370000393039B424639462046FFF725FF80B969
:10238000B9F1010F18D12368F6B21E6142463946F1
:102390002046FFF719FF68B3236C042B24D00120DB
:1023A000DDE7236C042B01D00120D8E722681368F5
:1023B00043F400731360F7E72368320A1A61424658
:1023C00039462046FFF700FF18B92368F6B21E61B0
:1023D000DCE7236C042B01D00120C0E722681368DE
:1023E00043F400731360F7E72268136843F4007343
:1023F0001360D4E72268136843F480731360CDF848
:1024000000803B4600224FF001112046FFF74DFEB1
:1024100068B922684AF00103136143463A46094904
:102420002046FFF77CFE002899D0012097E723681B
:102430001B6813F4807F02D04FF4007323640320E1
:102440008DE700BF0200010070B504460D46164638
:1024500023685B6913F0040F1CD12046FFF70CFEC4
:10246000D0B9B5F1FF3FF3D0FFF78AFC801BA8423B
:1024700001D8002DECD100232363202284F83D20D5
:1024800084F83E30226C42F02002226484F83C3012
:10249000012000E0002070BD0120FCE770B505467A
:1024A0000C4616462B68596911F0400F29D159691D
:1024B00011F0100F15D1FFF763FC801BA04201D86B
:1024C000002CEFD100232B63202285F83D2085F8D6
:1024D0003E302A6C42F020022A6485F83C3001200C
:1024E00070BD6FF010025A6100232B63202285F823
:1024F0003D2085F83E302A6C2A6485F83C30012066
:10250000EEE70020ECE70000002800F0CC80F8B5F2
:10251000044690F83D30002B77D0242384F83D30DA
:102520002268136823F0010313602268136843F4E0
:10253000004313602268136823F40043136001F022
:10254000A9FE62685A4B9A4264D85A4B98428CBF93
:1025500000230123002B40F0A880574DA5FB003538
:10256000AF0C2668716821F03F0141EA9541716026
:1025700021680B6A23F03F0365684D4A95424FD8A6
:102580007A1C13430B622568E96921F44F4121F05D
:10259000FF016368464A93424CD801385B00B0FBA8
:1025A000F3F0013040F6FC73184278D0C0F30B030F
:1025B0000B43EB6121680B6823F0C003E269206ADA
:1025C000024313430B6021688B6823F4034323F019
:1025D000FF032269E068024313438B602168CB68E4
:1025E00023F0FF036269A06902431343CB602268B2
:1025F000136843F00103136000202064202384F853
:102600003D30206384F83E00F8BD80F83C30FFF791
:102610008DF982E7294B98428CBF0023012399E76B
:102620004FF4967202FB07F2254DA5FB0252920968
:102630000132A6E7A268BAB9461E03EB4307B6FB10
:10264000F7F60136C6F30B06B6FA86F6760946BBF0
:10265000C2B9421E03EB4303B2FBF3F20132C2F3F1
:102660000B0242F40043A3E7461E03EB830707EB8C
:102670008707B6FBF7F60136C6F30B06B6FA86F601
:102680007609E4E7421E03EB830303EB8303B2FB0B
:10269000F3F20132C2F30B0242F4404388E7042311
:1026A00086E7012384E7012070470120ACE700BFE3
:1026B000A08601007F841E0083DE1B43FF083D00CF
:1026C000D34D62102DE9F04383B004460F46904687
:1026D00099460C9EFFF754FB054694F83D00C0B2A6
:1026E000202803D0022003B0BDE8F0830095192311
:1026F00001224B492046FFF7D8FC002840F0898092
:1027000094F83C30012B00F08680012384F83C30A3
:1027100023681A6812F0010F03D11A6842F001020F
:102720001A602268136823F400631360212384F87D
:102730003D30402384F83E30002323640A9B6362CB
:10274000BDF82C306385638D2385364BE36201959C
:1027500000964B46424639462046FFF75FFD00286B
:102760005BD1238D002B35D02A4631462046FFF71A
:102770002BFD20BB626A236812781A61616A4B1CC8
:102780006362228D013A92B22285638D9BB2013B36
:102790009BB263852368586910F0040FE1D0002ACA
:1027A000DFD04A781A61636A01336362238D013B8B
:1027B0002385638D9BB2013B9BB26385D1E7236C7C
:1027C000042B01D001208EE72268136843F40073C4
:1027D0001360F7E72A4631462046FFF735FE50B131
:1027E000236C042B01D001207DE72268136843F499
:1027F00000731360F7E72268136843F400731360F3
:10280000202384F83D30002384F83E3084F83C30A7
:1028100069E7022067E7022065E7012063E700BF60
:10282000020010000000FFFF2DE9F04387B00446CE
:102830000F4690469946109EFFF7A2FA054694F877
:102840003D00C0B2202804D00227384607B0BDE8BA
:10285000F0830095192301229D492046FFF725FCAE
:10286000002840F0448194F83C30012B00F0418175
:10287000012384F83C3023681A6812F0010F03D159
:102880001A6842F001021A602268136823F4006398
:102890001360222384F83D30402384F83E30002327
:1028A00023640E9B6362BDF83C306385638D238592
:1028B000884BE362019500964B46424639462046D6
:1028C000FFF718FD0746002840F01581238D5BB9FE
:1028D000029323685A6902929A690292029A1A68CC
:1028E00042F400721A6098E0012B0AD0022B1AD031
:1028F0000023059323685A6905929B690593059BFC
:102900008BE02268136823F4806313600023039331
:1029100023685A6903929A690392039A1A6842F4E7
:1029200000721A6079E02268136823F480631360F0
:102930002268136843F40063136000230493236840
:102940005A6904929B690493049B66E02A463146C7
:102950002046FFF7A3FD002840F0CF8023681A69C6
:10296000636A1A70636A01336362238D013B2385B6
:10297000638D9BB2013B9BB263854EE0009533466D
:10298000002255492046FFF790FB002840F0B78011
:102990002268136843F40073136023681A69636A3A
:1029A0001A70626A531C6362238D013B2385638D19
:1029B0009BB2013B9BB2638523681B695370636ABA
:1029C00001336362238D013B2385638D9BB2013B01
:1029D0009BB2638521E02268136843F4007313609F
:1029E00023681A69636A1A70626A531C6362238DD2
:1029F000013B2385638D9BB2013B9BB263852368BA
:102A00001B695370636A01336362238D013B238525
:102A1000638D9BB2013B9BB26385238D002B5DD000
:102A2000032B2BD8012B91D0022BA7D00095334636
:102A3000002229492046FFF738FB002861D122688F
:102A4000136823F48063136023681A69636A1A7039
:102A5000636A01336362238D013B2385638D9BB2DF
:102A6000013B9BB263850095334600221A492046FC
:102A7000FFF71BFB0028AED00127E6E62A463146C9
:102A80002046FFF70BFD00283DD123681A69636AD1
:102A90001A70626A531C6362238D013B2385638D28
:102AA0009BB2013B9BB263852368596911F0040F07
:102AB000B3D01B695370636A01336362238D013B9A
:102AC0002385638D9BB2013B9BB26385A5E700BF65
:102AD000020010000000FFFF04000100202384F822
:102AE0003D30002384F83E3084F83C30ADE60227C8
:102AF000ABE60227A9E60127A7E60127A5E60127FD
:102B0000A3E60127A1E601279FE600BF002800F009
:102B1000BF8070B5044690F84130002B51D002229E
:102B200084F841202168CB6923F47B6323F00F03F1
:102B3000CB6123681A626369934263D0E368002B18
:102B400046D11025A368202B00D86D00012001F08C
:102B500069FC2369B3F5007F3CD0B0FBF5F000EBD6
:102B6000800043006069B3FBF0F30533494AA2FBE0
:102B70000323C3F3C002C2EBD3035B0811029A1E06
:102B8000FD2A41D822690A43216813430B62216858
:102B9000CB6923F47B6323F00F036268A0680243D0
:102BA000E0680243A0690243134343F40063CB612E
:102BB000236A012B2ED000206064012384F8413069
:102BC00070BD80F84030344B4363FEF7E9FEA6E762
:102BD0002025B7E7E36853B1AD00B0FBF5F000EB9B
:102BE000800043006069B3FBF0F30533BEE7ED00FE
:102BF000B0FBF5F000EB800043006069B3FBF0F33D
:102C00000533B3E70021BAE7636C43F01003636454
:102C10000120D5E7214B63632268214B9A421FD0E4
:102C20004FF04022D36923F47B6323F00F03D36179
:102C300022681B4B9A4215D04FF0402302221A62A1
:102C40002268174B9A4210D04FF04021CA6992B2C5
:102C50006368B3F5007F0AD0C3B94FF4807608E00B
:102C6000104ADFE7A3F58063E8E70E49EEE74FF48B
:102C70008076A068E568238B2B439BB203439BB20D
:102C80003343134343F40063CB6194E70026F0E73A
:102C900001207047CDCCCCCC1F2D0008312F00086F
:102CA0000038004000340040704708B5426A0368AD
:102CB0001288DA60436A02334362438D9BB2013B60
:102CC0009BB24385438D9BB203B108BD0268536834
:102CD00023F0A0035360012380F84130FFF7E4FFA5
:102CE000F3E7704708B50368DA68C36A1A80C36AF5
:102CF0000233C362438E9BB2013B9BB24386438E39
:102D00009BB203B108BD0268536823F060035360AF
:102D1000012380F84130FFF7E4FFF3E7704710B577
:102D200084B0044602689368039390F84130DBB2A4
:102D3000042B06D094F84130DBB2032B2CD004B026
:102D400010BD039B13F0010F03D0536813F0400F25
:102D50001FD1039B13F0400FECD023685A6812F088
:102D6000200FE7D05A6822F060025A6000230193D6
:102D70002368DA6801929B680193019B012384F820
:102D80004130636C43F0020363642046FFF7C6FFE3
:102D9000D0E7FFF7A7FFDCE7039B13F0020F04D097
:102DA00023685B6813F0800F1DD1039B13F0080F9D
:102DB000C5D023685A6812F0200FC0D05A6822F09C
:102DC000A0025A600023029323689B680293029B2F
:102DD000012384F84130636C43F0040363642046AC
:102DE000FFF79CFFABE72046FFF75FFFDDE770478B
:102DF00008B5436A9A1C426202681B88D360438DFF
:102E00009BB2013B9BB24385438D9BB23BB90268A9
:102E1000536823F0A0035360438E9BB203B108BDF7
:102E2000012380F84130FFF7E2FFF8E708B50268B8
:102E3000154B9A421CD04FF04023DA68C36A991CA4
:102E4000C1621A80438E9BB2013B9BB24386438E84
:102E50009BB263B902680C4B9A420CD04FF04022EF
:102E6000536823F060035360438D9BB22BB108BDC0
:102E7000A3F58063E1E7054AF2E7012380F84130DA
:102E8000FFF7B5FFF3E700BF003800400034004013
:102E900008B5436A9A1C42621A880168134B99422A
:102EA00018D04FF04023DA60438D9BB2013B9BB2B8
:102EB0004385438D9BB263B902680C4B9A420CD098
:102EC0004FF04022536823F0A0035360438E9BB21F
:102ED0002BB108BDA3F58063E5E7054AF2E70123BE
:102EE00080F84130FFF783FFF3E700BF0038004070
:102EF0000034004008B50368DA68C36A991CC162EF
:102F00001A80438E9BB2013B9BB24386438E9BB299
:102F10003BB90268536823F060035360438D9BB252
:102F200003B108BD012380F84130FFF760FFF8E7E7
:102F300010B586B0044603689A680592704A9342B9
:102F40006FD04FF04022916804915B6803935368FF
:102F500002936368B3F5007F01D0002B70D1059B0D
:102F600013F0020F03D0039B13F0800F5CD1049B7E
:102F700013F0010F03D0029B13F0400F58D1049BB4
:102F800013F0400F24D0029B13F0200F20D02268B2
:102F90005B4B9A4250D04FF04022536823F06003BD
:102FA00053602268536823F0A0035360002300930A
:102FB0002368DA6800929B680093009B012384F8E1
:102FC0004130636C43F0020363642046FFF7A6FEC2
:102FD000059B13F0080F22D0039B13F0200F1ED087
:102FE0002268536823F0A00353602268444B9A423E
:102FF00024D04FF04022536823F060035360002335
:10300000019323689B680193019B012384F841305D
:10301000636C43F0040363642046FFF77FFE06B051
:1030200010BDA2F580628EE72046FFF7E1FE9EE725
:103030002046FFF7FBFEA2E7324AAEE7314ADAE765
:10304000049B13F0020F03D0029B13F0800F4AD1B0
:10305000059B13F0010F03D0039B13F0400F46D1E3
:10306000059B13F0400F1CD0039B13F0200F18D0CA
:103070002268536823F0600353602268204B9A4211
:1030800039D04FF04022536823F0A003536001234E
:1030900084F84130636C43F0020363642046FFF719
:1030A0003DFE049B13F0080FB9D0029B13F0200FD4
:1030B000B5D02268124B9A421FD04FF0402253687D
:1030C00023F0A00353602268536823F06003536029
:1030D000012384F84130636C43F0040363642046A9
:1030E000FFF71CFE9BE72046FFF7D2FEB0E7204625
:1030F000FFF700FFB4E7034AC5E7024ADFE700BF76
:1031000000380040003400402DE9F04782B0D0F88C
:103110000080C1EBC10300EB83035A6D1B6D9A4223
:1031200055D807460C46C1469B1AC1EBC10200EBBD
:103130008202526C9A4200D31A4602F1030A4FEA05
:103140009A0A15E006F1030A4FEA9A0AC4EBC4058D
:1031500007EB8505A96C3B7C0093B3B2E2B2404615
:1031600001F046FFAB6C3344AB646B6D1E446E657F
:1031700009EB441303F510639B699BB2534512D3CB
:10318000C4EBC40207EB8202516D136D99420AD25F
:103190004BB15B1AC4EBC40207EB8202566C9E4231
:1031A000D0D31E46CEE7C4EBC40007EB80073A6DD0
:1031B0007B6D9A420FD804F00F040123A340D8F886
:1031C000344824EA0304C8F83448002000E0012011
:1031D00002B0BDE8F0870020FAE7F0B58BB0002818
:1031E00000F08C800546046890F8BD332BB30323B0
:1031F00085F8BD33E36B13F4807F01D100232B618D
:10320000286801F085FC2C4654F8107B6E460FCCE4
:103210000FC60FCC0FC694E8030086E803002B1DF1
:103220000ECB384601F0B6FB044658B1022385F8B0
:10323000BD33012420460BB0F0BD80F8BC3303F051
:1032400099F8D4E70021286801F068FC234616E0CD
:10325000C3EBC30205EB8202012182F83D1082F824
:103260003C30A2F84230002182F83F105164916452
:10327000C3EBC30205EB820211650133DBB269685F
:103280008B42E5D316E0C4EBC40305EB83030022B5
:1032900083F8FD2183F8FC4183F8FF21C3F8042261
:1032A000C3F80822C4EBC40305EB8303C3F8102260
:1032B0000134E4B2A142E6D82C4654F8107B6E46A5
:1032C0000FCC0FC60FCC0FC694E8030086E80300AE
:1032D0002B1D0ECB384601F067FC044620B10223BB
:1032E00085F8BD330124A5E7002385F83830012394
:1032F00085F8BD33286802F024F89BE7012499E79C
:10330000026890F8BC33012B19D010B50446012394
:1033100080F8BC33836A012B09D0206801F0F2FBEE
:10332000206802F000F8002084F8BC0310BD836917
:10333000012BF2D0936B43F480339363EDE70220CB
:103340007047000070B504460D460068066C00EB3F
:10335000411303F530639A682169012911D0354979
:103360008E4250D03DB9C5EBC50304EB8303D3F8BF
:103370001032002B58D0E9B2204603F051F800205B
:1033800070BD12F0080F09D02B498E42F7D912F404
:10339000004FF4D04FF400429A60F0E712F0200F93
:1033A00002D020229A60EAE712F0280FE7D12249E2
:1033B0008E4206D912F4004F03D04FF400429A60B7
:1033C000DDE7C5EBC50204EB8202D2F804121B69EB
:1033D000C3F31203C91AC2F81412D2F80412D2F8B5
:1033E00008320B44C2F8083215B9D2F8103223B1B2
:1033F000E9B2204603F014F8C1E704F57172012127
:1034000001F0F2FFF4E712F4004F03D04FF4004252
:103410009A60B4E712F0200F01D020229A60E9B23E
:10342000204602F0FDFFAAE704F57172002101F0C9
:10343000DBFFA0E70A31544F0A30544F38B5044639
:1034400003681D6C03EB4113D3F8081B0E4A954229
:1034500007D903F5306311F4004F02D04FF4004256
:103460009A60204602F0D4FF074B9D4202D923699F
:10347000012B01D0002038BD04F5717201212068B4
:1034800001F0B2FFF6E700BF0A30544F2DE9F04FCC
:1034900083B004460568284601F091FF10B103B0DF
:1034A000BDE8F08F2F460646206801F058FF00283F
:1034B000F5D0206801F053FF10F0020F04D022680D
:1034C000536903F002035361206801F048FF10F0D4
:1034D000100F14D02268936923F010039361D5F87C
:1034E000208008F00F09C8F34343022B68D0062B55
:1034F00000F08D802268936943F010039361206887
:1035000001F02DFF10F4002F40F09380206801F0AF
:1035100026FF10F4802F40F0D780206801F01FFFB5
:103520000028C0F24381206801F019FF10F4006FF9
:103530000AD0D5F8083813F0010F40F05181226805
:10354000536903F400635361206801F008FF10F42D
:10355000805F40F04981206801F001FF10F4005FB6
:1035600040F0A881206801F0FAFE10F0080F40F04A
:10357000B981206801F0F3FE10F4801F40F0BB8198
:10358000206801F0ECFE10F4001F40F0BE812068BE
:1035900001F0E5FE10F0804F40F0C181206801F09D
:1035A000DEFE10F0040F3FF47AAF23685D6815F07B
:1035B000040F40F0BD81226853682B4353606EE7CF
:1035C00047F6F07318EA030F94D04FEA181B4FEA3E
:1035D000C9030193C9EBC90A04EB8A0AC8F30A12AA
:1035E000DAF80812284601F023FECBF30A0BDAF8CA
:1035F00008325B44CAF80832019BA3EB090304EBD1
:103600008303D3F814325B44CAF8143272E70822F9
:1036100004F57171284601F00BFEC8F30A18C9EBD6
:10362000C90204EB8202D2F814324344C2F81432C5
:1036300060E7206801F097FE8046B14617E007EB8F
:1036400049130122C3F8082B49462046FFF77AFEAA
:103650001DE007EB49130822C3F8082B4946204612
:10366000FFF7ECFE16E009F101094FEA5808B8F13E
:10367000000F3FF44BAF18F0010FF4D05FFA89F15F
:10368000206801F080FE824610F0010FD7D11AF0B9
:10369000080FDED11AF0100F04D007EB49131022E7
:1036A000C3F8082B1AF0200F04D007EB491320228F
:1036B000C3F8082B1AF4005FD5D007EB49134FF479
:1036C0000052C3F8082BCEE7206801F054FE804674
:1036D000B1462AE05946204602F0AEFE1AF0080F25
:1036E00004D007EB49130822C3F808291AF0100F79
:1036F00004D007EB49131022C3F808291AF0400F31
:1037000004D007EB49134022C3F808291AF0020F2E
:1037100004D007EB49130222C3F808291AF0800FDE
:103720003FD109F101094FEA5808B8F1000F3FF401
:10373000F4AE18F0010FF4D05FFA89FB5946206807
:1037400001F02AFE824610F0010FC7D009F00F03E6
:10375000012101FA03F2D7F8343823EA0203C7F84B
:10376000343807EB4913C3F8081923698B42B1D1E8
:10377000C9EBC90304EB8303596C9A6C0A449A643D
:10378000B9F1000FA6D1C9EBC90304EB83031B6D8C
:10379000002B9FD104F571720121206801F024FEF5
:1037A00098E749462046FFF7AFFCBAE7D5F804385A
:1037B00023F00103C5F8043894F8F433012B08D042
:1037C000204602F075FE2268536903F000435361FE
:1037D000A9E6002184F8F413204600F047FAF2E746
:1037E000204602F04DFEAAE605F50068D8F8043040
:1037F00023F00103C8F804301021206801F0A6F975
:1038000020E007EB46134FF67F31C3F80819D3F8D1
:10381000002922F40012C3F80029D3F8002942F04D
:103820000062C3F80029C3F8081BD3F8002B22F468
:103830000012C3F8002BD3F8002B42F00062C3F84B
:10384000002B01366368B342DBD8D8F81C3043F054
:103850000113C8F81C30236BEBB1D8F8843043F067
:103860000B03C8F88430D8F8443043F00B03C8F891
:103870004430D5F8003823F4FE63C5F8003804F569
:103880007172217C206801F0AFFD2268536903F456
:10389000805353615FE6D8F8143043F4005343F08B
:1038A0002B03C8F81430D8F8103043F00B03C8F8D5
:1038B0001030DEE7206801F086FD206801F040FA54
:1038C000E060256800F0E0FC0146227B284601F01C
:1038D000A7F8204602F0C1FD2268536903F40053A3
:1038E00053613FE6204602F0B2FD2268536903F0BF
:1038F000080353613DE60021204602F0E5FD226801
:10390000536903F4801353613AE60021204602F024
:10391000D5FD2268536903F40013536137E620464E
:1039200002F0D8FD2268536903F08043536135E605
:10393000204602F0D5FD3EE690F8BC33012B0DD0B9
:1039400010B50446012380F8BC3380F838100068B5
:1039500001F0D9FC002084F8BC0310BD02207047A0
:10396000F8B507460C4611F0800F27D101F00F057E
:10397000C5EBC506B60006F5FC760644311DC5EB61
:10398000C50500EB8505002085F8FD0104F00F0456
:103990000C708A60CB704A7802B1CC80022B1DD0AB
:1039A00097F8BC33012B1CD0012387F8BC3338684F
:1039B00001F0D7F9002087F8BC03F8BD01F00F0033
:1039C000C0EBC0018900383139440431C0EBC0007C
:1039D00007EB8000012580F83D50D7E700230B71ED
:1039E000DEE70220E9E710B504460A4611F0800F31
:1039F00020D101F00F00C0EBC0039B0003F5FC7366
:103A00002344191DC0EBC00004EB8000002380F8A4
:103A1000FD3102F00F020A7094F8BC33012B19D06B
:103A2000012384F8BC33206801F0E6F9002084F813
:103A3000BC0310BD01F00F00C0EBC0039B00383386
:103A40002344191DC0EBC00004EB8000012380F863
:103A50003D30DEE70220ECE738B501F00F04C4EB9F
:103A6000C401890001F5FC7101440431C4EBC405B3
:103A700000EB8505C5F80822C5F810320023C5F80B
:103A8000143285F8FD3185F8FC410369012B06D01D
:103A900064B9DAB2006801F01DFA002038BDC4EB49
:103AA000C40500EB8505C5F80C22F1E7DAB2006821
:103AB00001F0B2FAF1E701F00F01C1EBC10100EB37
:103AC0008101D1F81402704738B501F00F04C4EB3E
:103AD000C4018900383101440431C4EBC40500EB52
:103AE0008505AA642B6500236B65012385F83D30AD
:103AF00085F83C400369012B06D05CB9DAB2006856
:103B000001F0E8F9002038BDC4EBC40500EB8505E1
:103B1000EA64F2E7DAB2006801F07EFAF2E738B55B
:103B200001F00F054268954239D804460B4611F062
:103B3000800F1FD1C1EBC101890001F5FC71014467
:103B40000431C3EBC30300EB8303002283F8FD21A0
:103B500001238B700D7094F8BC33012B21D001230D
:103B600084F8BC33206801F073FB8DB1002084F829
:103B7000BC0338BDC5EBC5018900383101440431AF
:103B8000C5EBC50300EB8303012283F83D20DFE78B
:103B900004F57172217C206801F026FCE6E7012023
:103BA000E7E70220E5E701F00F034268934231D8CE
:103BB00010B5044611F0800F1ED1C3EBC30189007C
:103BC00001F5FC7101440431C3EBC30200EB820236
:103BD000002082F8FD0100228A700B7094F8BC333B
:103BE000012B19D0012384F8BC33206801F05DFB60
:103BF000002084F8BC0310BDC3EBC3018900383139
:103C000001440431C3EBC30200EB8202012082F8BD
:103C10003D00E0E7012070470220ECE730B4046883
:103C2000606A19B940EA0240A06218E00D46A36A32
:103C300000EB13400023691E8B4209D203F14001BF
:103C400004EB8101496800EB11400133DBB2F2E77C
:103C500040EA024005F13F0104EB81014860002089
:103C600030BC7047036859620020704770470000FD
:103C7000002800F0D98170B582B00446036813F0C3
:103C8000010F3BD0A64B9B6803F00C03042B2CD0F8
:103C9000A34B9B6803F00C03082B21D06368B3F59A
:103CA000803F4FD0B3F5A02F52D09D4B1A6822F41D
:103CB00080321A601A6822F480221A606368002B2E
:103CC00050D0FEF75DF80546954B1B6813F4003F96
:103CD00014D1FEF755F8401B6428F5D90320AAE15A
:103CE0008F4B5B6813F4800FD8D08D4B1B6813F497
:103CF000003F03D06368002B00F09881236813F025
:103D0000020F54D0864B9B6813F00C0F3ED0844BAF
:103D10009B6803F00C03082B33D0E368002B67D0BB
:103D2000804B01221A60FEF72BF805467C4B1B687E
:103D300013F0020F53D1FEF723F8401B0228F5D9E8
:103D4000032078E1764A136843F480331360B5E7C3
:103D5000734B1A6842F480221A601A6842F4803267
:103D60001A60ABE7FEF70CF805466D4B1B6813F4C1
:103D7000003FC3D0FEF704F8401B6428F5D90320A8
:103D800059E1674B5B6813F4800FC6D1644B1B6825
:103D900013F0020F03D0E368012B40F04981604A21
:103DA000136823F0F803216943EAC1031360236811
:103DB00013F0080F40D0636963B35B4B01221A60B4
:103DC000FDF7DEFF0546564B5B6F13F0020F33D154
:103DD000FDF7D6FF401B0228F5D903202BE1504AFE
:103DE000136823F0F803216943EAC1031360DEE797
:103DF0004C4B00221A60FDF7C3FF0546484B1B6879
:103E000013F0020FD3D0FDF7BBFF401B0228F5D9FA
:103E1000032010E1444B00221A60FDF7B1FF054674
:103E20003F4B5B6F13F0020F06D0FDF7A9FF401B5D
:103E30000228F5D90320FEE0236813F0040F78D0A0
:103E4000374B1B6C13F0805F0DD100230193344B73
:103E50001A6C42F080521A641B6C03F08053019379
:103E6000019B012500E00025304B1B6813F4807F87
:103E700021D0A368012B32D0052B36D0284B1A6FE6
:103E800022F001021A671A6F22F004021A67A3686F
:103E9000002B34D0FDF774FF0646214B1B6F13F047
:103EA000020F45D1FDF76CFF801B41F28833984229
:103EB000F3D90320BFE01D4A136843F480731360F5
:103EC000FDF75EFF0646194B1B6813F4807FD0D1C7
:103ED000FDF756FF801B0228F5D90320ABE0104AFE
:103EE000136F43F001031367D1E70D4B1A6F42F0D4
:103EF00004021A671A6F42F001021A67C7E7FDF75A
:103F00003FFF0646064B1B6F13F0020F10D0FDF764
:103F100037FF801B41F288339842F3D903208AE0AF
:103F20000038024000004742800E474200700040C7
:103F3000E5B9A369002B7DD0464A926802F00C02D5
:103F4000082A51D0022B17D0434B00221A60FDF7EC
:103F500017FF04463F4B1B6813F0007F42D0FDF76C
:103F60000FFF001B0228F5D9032064E0394A136CC7
:103F700023F080531364DCE7374B00221A60FDF70F
:103F8000FFFE0546334B1B6813F0007F06D0FDF79C
:103F9000F7FE401B0228F5D903204CE0E369226AB2
:103FA0001343626A43EA8213A26A5208013A43EA5F
:103FB0000243E26A43EA0263264A5360264B012227
:103FC0001A60FDF7DDFE0446224B1B6813F0007FEC
:103FD00006D1FDF7D5FE001B0228F5D903202AE003
:103FE000002028E0002026E0012B26D0194B5B683A
:103FF00003F48001E269914221D103F03F02216A7A
:104000008A421ED1616A47F6C0721A408A421AD1AA
:1040100003F44032A16A8A4217D103F07063E26A66
:10402000934214D1002006E001207047012002E0F5
:10403000012000E0002002B070BD0120FBE701205C
:10404000F9E70120F7E70120F5E70120F3E7012078
:10405000F1E700BF0038024060004742F8B52F4B3F
:104060009B6803F00C03042B53D0082B53D12B4B2C
:104070005A6802F03F025B6813F4800F28D0274B88
:104080005B68C3F3881358010021C01A61F1000175
:104090008E0146EA906687013C1A66EB0105E9004D
:1040A00041EA5471E000C01841F100014B0243EABB
:1040B000D0534402204619460023FCF76BFB174BF4
:1040C0005B68C3F3014301335B00B0FBF3F023E013
:1040D000124B5B68C3F388135C010025E41A65F199
:1040E0000005AE0146EA9466A701381B66EB0501A0
:1040F000CC0044EA5074C500E81844F100018B027A
:1041000043EA90538402204619460023FCF742FB01
:10411000D5E7034800E00348F8BD00BF003802407F
:1041200000127A000024F400002800F09B8070B593
:104130000D4604464F4B1B6803F00F038B4208D219
:10414000CBB24C4A1370136803F00F038B4240F05C
:104150008B80236813F0020F17D013F0040F04D0E4
:10416000454A936843F4E0539360236813F0080FC3
:1041700004D0414A936843F4604393603E4A936895
:1041800023F0F003A1680B439360236813F0010F41
:1041900032D06368012B21D09A1E012A25D9364AD4
:1041A000126812F0020F61D033498A6822F00302CC
:1041B00013438B60FDF7E4FD06462F4B9B6803F02D
:1041C0000C036268B3EB820F16D0FDF7D9FD801B9C
:1041D00041F288339842F0D9032042E0264A12681F
:1041E00012F4003FE0D101203BE0234A126812F0B4
:1041F000007FD9D1012034E01E4B1B6803F00F0370
:10420000AB4207D9EAB21B4B1A701B6803F00F03CD
:10421000AB422DD1236813F0040F06D0164A9368E1
:1042200023F4E053E1680B439360236813F0080F15
:1042300007D0114A936823F46043216943EAC1031C
:104240009360FFF70BFF0C4B9B68C3F303130B4A00
:10425000D35CD8400A4B18600A4B1868FDF744FD40
:10426000002070BD012070470120FAE70120F8E727
:104270000120F6E7003C024000380240DCC40008A0
:104280000000002008000020014B1868704700BFA4
:104290000000002008B5FFF7F7FF044B9B68C3F34D
:1042A0008223034AD35CD84008BD00BF00380240D7
:1042B000ECC4000830B583B00446036813F0050F62
:1042C0000ED1236813F0020F38D1236813F0080FC2
:1042D00000F09B80227D4E4B1A60002003B030BD61
:1042E0004C4B00221A60FDF74BFD05464A4B1B68FC
:1042F00013F0006F06D0FDF743FD431B022BF5D9E9
:104300000320EBE76368A26843EA8213E26843EAAA
:104310000273414AC2F884303E4B01221A60FDF715
:104320002FFD05463C4B1B6813F0006FC9D1FDF70C
:1043300027FD401B0228F5D90320CFE70023019376
:10434000354B1A6C42F080521A641B6C03F0805398
:104350000193019B314A136843F480731360FDF7A6
:104360000FFD05462D4B1B6813F4807F06D1FDF72A
:1043700007FD431B022BF5D90320AFE7264B1B6F2C
:1043800013F4407312D0226902F440729A420DD0A5
:10439000214B1A6F22F4407221490120086000204D
:1043A00008601A671B6F13F0010F12D1236903F421
:1043B0004072B2F5407F1DD0174A936823F4F8137A
:1043C000936015490B6F2269C2F30B0213430B670D
:1043D0007BE7FDF7D5FC05460F4B1B6F13F0020F73
:1043E000E4D1FDF7CDFC401B41F288339842F3D96C
:1043F000032073E708498A6822F4F81223F0704317
:1044000023F4407313438B60DBE7002066E700BFB3
:10441000E011474268004742003802400070004007
:10442000400E4742012801D000207047174B9B687F
:1044300013F4000303D0012B25D115487047134B0B
:104440005B6813F4800F15D0104BD3F8843003F061
:104450003F031048B0FBF3F00C4AD2F88430C3F3AA
:10446000881300FB03F0D2F88430C3F30273B0FB6F
:10447000F3F07047054BD3F8843003F03F03064850
:10448000B0FBF3F0E8E70020704700BF00380240BF
:104490000080BB0000127A000024F40000283BD00A
:1044A00010B504460023836290F85130002B2ED0C3
:1044B000022384F851302268136823F0400313600C
:1044C0006368A2681343E268134322691343626975
:1044D0001343A26902F400721343E2691343226A90
:1044E0001343A16A22680B431360638B03F0040338
:1044F000616A22680B4353602268D36923F4006326
:10450000D36100206065012384F8513010BD80F82C
:104510005030FDF7DFFACBE70120704730B4036A73
:10452000056A25F001050562846924F0F00444EA77
:10453000021423F00A030B438461036230BC70470A
:1045400030B4056A25F0100505628469036A24F415
:10455000704444EA023423F0A00343EA0113846167
:10456000036230BC7047836823F070030B4343F051
:104570000703836070470268D36843F00103D36088
:104580000268936803F00703062B03D0136843F017
:1045900001031360002070477047704770477047F1
:1045A00010B5044603681A6912F0020F11D0DA68D8
:1045B00012F0020F0DD06FF002021A61012303778F
:1045C00003689B6913F0030F70D0FFF7E6FF002329
:1045D000237723681A6912F0040F12D0DA6812F0F8
:1045E000040F0ED06FF004021A61022323772368B0
:1045F0009B6913F4407F5FD02046FFF7CEFF002376
:10460000237723681A6912F0080F12D0DA6812F0C3
:10461000080F0ED06FF008021A6104232377236875
:10462000DB6913F0030F4ED02046FFF7B6FF0023DF
:10463000237723681A6912F0100F12D0DA6812F08B
:10464000100F0ED06FF010021A6108232377236831
:10465000DB6913F4407F3DD02046FFF79EFF002327
:10466000237723681A6912F0010F03D0DA6812F079
:10467000010F36D123681A6912F0800F03D0DA686F
:1046800012F0800F34D123681A6912F0400F03D062
:10469000DA6812F0400F32D123681A6912F0200F45
:1046A00003D0DA6812F0200F30D110BDFFF774FF8D
:1046B0002046FFF773FF8AE72046FFF76DFF20468D
:1046C000FFF76CFF9BE72046FFF766FF2046FFF7EA
:1046D00065FFACE72046FFF75FFF2046FFF75EFF70
:1046E000BDE76FF001021A612046FCF783FFC1E7C6
:1046F0006FF080021A61204600F02DF9C3E76FF0D9
:1047000040021A612046FFF74AFFC5E76FF020021A
:104710001A61204600F01EF9C7E700000368254A29
:1047200090420ED0B0F1804F0BD0A2F57C42904267
:1047300007D002F58062904203D002F58062904279
:1047400003D123F070034A6813431A4A90421AD0E7
:10475000B0F1804F17D0A2F57C42904213D002F501
:10476000806290420FD002F5806290420BD002F539
:104770009A32904207D002F58062904203D002F54F
:104780008062904203D123F44073CA68134323F03C
:1047900080034A69134303608B68C3620B688362BA
:1047A000044B984202D00123436170470B690363B5
:1047B000F9E700BF00000140B0B110B5044690F821
:1047C0003D3063B1022384F83D30214651F8040B9B
:1047D000FFF7A4FF012384F83D30002010BD80F8CE
:1047E0003C30FDF7AFF9EDE70120704710B4846865
:1047F00024F47F4442EA03220A432243826010BC2D
:10480000704790F83C30012B66D010B50446012368
:1048100080F83C30022380F83D300268936823F42E
:104820007F4323F0770393600B68602B40D022D83E
:10483000402B47D00BD9502B0ED1CA68496800686D
:10484000FFF76CFE50212068FFF78DFE04E0202B5F
:104850000CD008D9302B09D0012384F83D3000203A
:1048600084F83C0010BD0BB1102BF5D1194620681F
:10487000FFF779FEF0E7702B0ED0B3F5005FEBD1B8
:10488000CB684A6889680068FFF7B0FF22689368C0
:1048900043F480439360DFE7CB684A688968006827
:1048A000FFF7A4FF2268936843F077039360D3E790
:1048B000CA6849680068FFF743FE60212068FFF777
:1048C00052FEC9E7CA6849680068FFF727FE402121
:1048D0002068FFF748FEBFE70220704790F83C30A1
:1048E000012B33D030B4012380F83C30022380F810
:1048F0003D3003685C689D6824F070040A682243B8
:104900005A600368124A934212D0B3F1804F0FD01D
:10491000A2F57C4293420BD002F58062934207D00D
:1049200002F58062934203D002F59A32934204D199
:1049300025F080054A6815439D60012380F83D30CD
:10494000002380F83C30184630BC70470220704786
:104950000000014070477047002301330C4A934226
:1049600011D80269002AF8DA036943F001030361F0
:1049700000230133064A934207D8026912F0010F5F
:10498000F7D100207047032070470320704700BF15
:10499000400D030084B010B5044603A880E80E0063
:1049A000089B012B1FD1A36B23F48033A363E3681F
:1049B00023F4840323F04003E360E36823F440130B
:1049C000E3600F9B012B09D02046FFF7C5FF069B34
:1049D000012B1BD0BDE8104004B07047E36843F4DE
:1049E0008013E360F0E7E36843F04003E3602046B0
:1049F000FFF7B2FF0C9B23B9A36B43F48033A3638F
:104A0000E5E7A36B23F48033A363E0E7A36843F0F7
:104A10000603A360A36843F02003A360DAE7000065
:104A2000022A0AD00921C26822F47052C260C36807
:104A300043EA8123C36000207047234B0B44234A81
:104A400093422FD9224B0B44224A93422CD9A1F5F1
:104A50007403A3F51053204A934227D9A1F183731D
:104A6000A3F5E7431D4A934222D31D4B0B441D4A35
:104A700093421FD91C4B0B441C4A93421CD31C4B22
:104A80000B441C4A934219D3A1F1B773A3F55853B1
:104A9000194A934214D3194B0B44194A934211D229
:104AA0000721C0E70F21BEE70E21BCE70D21BAE7C1
:104AB0000C21B8E70B21B6E70A21B4E70921B2E7D8
:104AC0000821B0E70621AEE7405327FFFF340C0072
:104AD000401E1BFF3F420F007F4F120020D61300E5
:104AE00060B6E5FE5FE3160000D3CEFE40771B0004
:104AF000C05BB3FEC091210020753800E05459FE20
:104B0000E09C4100836843F001038360002070470C
:104B1000836823F0010383600020704708B5C368F1
:104B200023F0C043C360012909D069B9C36843F0C9
:104B30008043C3603220FDF729F9002008BDC36817
:104B400043F00053C360F5E70120F7E7890141F026
:104B50002001016100230133054A934205D802690F
:104B600012F0200FF7D1002070470320704700BFDC
:104B7000400D03001023036100230133054A9342D3
:104B800005D8026912F0100FF7D1002070470320FA
:104B9000704700BF400D0300D0F800381943C0F83B
:104BA000001800207047000084B02DE9F843044647
:104BB00009A880E80E002546002306E003F1400224
:104BC00004EB82020021516001330E2BF6D9DDF88F
:104BD0004C80B8F1000F24D1D4F8043843F002031C
:104BE000C4F80438A36B43F40013A363A36B23F44A
:104BF0000023A363A36B23F48023A3630023C4F8DF
:104C0000003E04F50066D4F80038C4F800380E9B66
:104C1000012B14D10B9B6BB900212046FFF7BCFF81
:104C200011E0A36B23F40013A363A36B43F40023ED
:104C3000A363E3E701212046FFF7AEFF03E0032172
:104C40002046FFF7A9FF10212046FFF77FFF81468E
:104C500008B14FF001092046FFF78CFF08B14FF073
:104C60000109002333617361F3610AE0C3B94FF0B6
:104C70000060C2F8000900220A614FF67F328A60A4
:104C80000133099F9F4210D905EB431202F51061D1
:104C9000D2F800090028E9DB0020C2F80009EAE7A1
:104CA0004FF09040C2F80009E5E700230AE0BBB1ED
:104CB0004FF09040C2F8000B00220A614FF67F329D
:104CC0008A6001339F4210D905EB431202F530612F
:104CD000D2F8000B0028EADB0020C2F8000BEBE75B
:104CE0004FF00060C2F8000BE6E7336923F48073ED
:104CF00033610023A3616FF0804363610C9B1BB998
:104D0000A36943F01003A361A2690C4B1343A36191
:104D10000F9B1BB1A36943F00803A361B8F1010F16
:104D200004D04846BDE8F84304B07047A36943F097
:104D3000804343F00403A361F3E700BF00383C80E5
:104D4000D0F8083813F0060307D0022B07D0062B43
:104D500001D00F20704702207047002070470220CA
:104D6000704770B40C784B78012B22D0D0F81C38E7
:104D700004F00F060122B24043EA0243C0F81C3897
:104D800000EB4410D0F8003B13F4004F0ED1D0F8E4
:104D9000003B8A68C2F30A02C97842EA814213439F
:104DA00043F0805343F40043C0F8003B002070BC44
:104DB0007047D0F81C2804F00F06B3409BB2134391
:104DC000C0F81C3800EB4410D0F8003913F4004F41
:104DD000ECD1D0F800398A68C2F30A02C97842EAF5
:104DE000814242EA84541C4344F0805444F4004419
:104DF000C0F80049DAE7000030B40B784A78012A9D
:104E000024D000EB4313D3F8002B002A50DBD0F85A
:104E10003C580A7802F00F02012404FA02F225EA53
:104E20000242C0F83C28D0F81C28097801F00F0194
:104E30008C4022EA0444C0F81C48D3F8001B234AE3
:104E40000A40C3F8002B002030BC704700EB43132E
:104E5000D3F80029002A1EDBD0F83C580A7802F06B
:104E60000F02012404FA02F292B225EA0202C0F80B
:104E70003C28D0F81C28097801F00F018C40A4B21E
:104E800022EA0404C0F81C48D3F80019104A0A406A
:104E9000C3F80029D7E7D3F8002942F00062C3F82D
:104EA0000029D3F8002942F08042C3F80029D3E753
:104EB000D3F8002B42F00062C3F8002BD3F8002B8C
:104EC00042F08042C3F8002BA1E700BF0078F3EF67
:104ED000007833EC70B40B784C78012C26D000EBC2
:104EE000431000F530631C69E40CE4041C611C6988
:104EF00024F0FF5424F4C0141C614C690CB18C687C
:104F00004C611C6944F400241C611C698D68C5F364
:104F100012052C431C61012A65D0D0F8003B43F0F8
:104F20000443C0F8003B002070BC70474C696CBB68
:104F300000EB4314D4F8105925F0FF5525F4C015A3
:104F4000C4F81059D4F8105945F40025C4F8105984
:104F5000D4F81059ED0CED04C4F81059012A33D0DF
:104F600000EB4313D3F8002942F00442C3F80029B0
:104F70004B69002BD7D0D0F834380A7802F00F01F3
:104F800001228A401343C0F83438CCE700EB4314C5
:104F900004F510642569ED0CED042561256925F003
:104FA000FF5525F4C01525614E698D68AE4200D9C4
:104FB0004D61256945F40025256125694E69C6F3D3
:104FC000120635432561C9E70A691AB100EB43119E
:104FD000C1F8142900EB4310D0F8002942F0044234
:104FE000C0F800299FE7CA68002A96D05A6194E762
:104FF00070B49DF80C4064B903339D08AC4208D2EC
:1050000000EB023303F5805351F8046B1E6001344A
:10501000F4E7002070BC7047F0B583B00B784C7893
:10502000012C2BD000EB431303F530642569ED0C04
:10503000ED042561256925F0FF5525F4C01525618E
:105040004D69002D40F0C38025698E68C6F31206B5
:1050500035432561256945F400252561012A00F0C5
:10506000CB80CA78012A00F0CD80D3F8002B42F023
:105070000442C3F8002B002003B0F0BD4C6984BB90
:1050800000EB4314D4F8105925F0FF5525F4C01552
:10509000C4F81059D4F8105945F40025C4F8105933
:1050A000D4F81059ED0CED04C4F81059012A4CD075
:1050B00000EB4313D3F8004944F00444C3F800491B
:1050C000CC78012C6AD04B69002BD4D0D0F834288E
:1050D000097801F00F040121A1400A43C0F83428E7
:1050E000C9E700EB4314D4F81059ED0CED04C4F8F3
:1050F0001059D4F8105925F0FF5525F4C015C4F8FF
:105100001059D4F810694D698F683D44013DB5FBD5
:10511000F7F5464F07EAC5453543C4F81059D4F8AA
:1051200010594E69C6F312063543C4F8105904F5F8
:105130001064CD78012DB9D1256925F0C0452561D0
:10514000256945F000552561B0E70A691AB100EB01
:105150004314C4F81429CA78012A08D000EB431379
:10516000D3F8002942F00442C3F8002983E7D0F8BD
:10517000082812F4807F08D100EB4311D1F80029F0
:1051800042F00052C1F80029E8E700EB4311D1F8E2
:10519000002942F08052C1F80029DFE7D0F8084822
:1051A00014F4807F0CD1D3F8004944F00054C3F8C4
:1051B000004900928B8A0A78C968FFF719FF5AE7FD
:1051C000D3F8004944F08054C3F80049F1E78E68F1
:1051D0003544013DB5FBF6F52669144F07EAC5478E
:1051E0003E43266127698E68ADB206FB05F5C5F31F
:1051F00012053D43256131E7CA68002A3FF431AF0B
:1052000062612EE7D0F8082812F4807F06D1D3F827
:10521000002B42F00052C3F8002B26E7D3F8002BF6
:1052200042F08052C3F8002B1FE700BF0000F81FB8
:1052300010B4033294080023A34206D200F5805232
:10524000126841F8042B0133F6E7084610BC70479A
:105250000B784A78012A14D000EB4310D0F8002BC9
:10526000002A06DB2BB1D0F8003B23F08043C0F8C6
:10527000003BD0F8003B43F40013C0F8003B002093
:10528000704700EB4310D0F80029002A06DB2BB151
:10529000D0F8003923F08043C0F80039D0F8003945
:1052A00043F40013C0F80039E9E70B784A78012A83
:1052B0000ED000EB4310D0F8003B23F40013C0F8ED
:1052C000003BCB78023BDBB2012B15D900207047A5
:1052D00000EB4310D0F8003923F40013C0F8003974
:1052E000CB78023BDBB2012BF0D8D0F8003943F089
:1052F0008053C0F80039E9E7D0F8003B43F0805311
:10530000C0F8003BE2E7D0F8003823F4FE63C0F8B1
:105310000038D0F80038090101F4FE611943C0F8E3
:10532000001800207047D0F8003E23F00303C0F8B7
:10533000003ED0F8043823F00203C0F804380020FF
:105340007047D0F8003E23F00303C0F8003ED0F8C9
:10535000043843F00203C0F8043800207047426963
:10536000806910407047D0F8183800F50060C069B7
:105370001840000C7047D0F8183800F50060C0697C
:10538000184080B2704700EB4111D1F8082B00F5AE
:10539000006040691040704710B4D0F81048D0F851
:1053A000343801F00F02D340DB01DBB2234300EBC2
:1053B000411000F510608068184010BC70474069CB
:1053C00000F001007047D0F8003923F4FF6323F0A8
:1053D0000703C0F80039D0F8043843F48073C0F8EC
:1053E000043800207047000010B4046C144B9C4239
:1053F00003D9D0F8003B002B16DB0024C0F8104B7B
:10540000D0F8104B44F40024C0F8104BD0F8104BE7
:1054100044F01804C0F8104BD0F8104B44F0C044CE
:10542000C0F8104B012902D0002010BC7047C0F812
:10543000142BD0F8003B43F08023C0F8003BF3E787
:105440000A30544F10B5D0F8BC42D0F8C0325BB12E
:1054500094F80002FF2807D09B6894F801222146A7
:105460009847FF2384F80032002010BD43230380B7
:1054700000487047440000204323038000487047E1
:10548000880000204323038000487047D800002094
:105490000A23038000487047CC00002038B5D0F8BC
:1054A000BC5275B1044601F06CF8C5F80C02D4F892
:1054B000C032DB6805F50371D5F804029847002077
:1054C00038BD0320FCE738B5D0F8C442D0F8BC3270
:1054D0004BB301EB810200EB820292694AB1C1EB4E
:1054E000C10504EB8504656CB2FBF5F405FB1422E1
:1054F0006AB10024C3F81442D0F8C02215690A46E4
:1055000003F50471D3F80802A847204638BD01EB23
:10551000810300EB830300249C612346224601F0B3
:1055200073F82046F2E70320F0E7F0B583B00646B3
:105530000C46D0F8BC7200238DF80730ADF804306B
:105540000B7813F0600527D0202D58D1CA88DAB126
:1055500013F0800F0CD0D0F8C0329B6839466078C9
:105560009847E2883946304600F0C9FD002549E0F9
:105570004B7887F800328B7987F80132CA88394630
:1055800000F0D2FD00253DE0D0F8C0329B6800223B
:1055900048789847002535E04F780B2F2BD8DFE867
:1055A00007F006312A2A2A2A2A2A2A2A142290F8BF
:1055B0009C32032B03D000F082FA032522E0022262
:1055C00001A900F09CFD3D461CE090F89C32032BA5
:1055D00003D000F074FA032514E001220DF1070155
:1055E00000F08DFD0EE090F89C32032B0AD000F005
:1055F00066FA032506E000F062FA032502E000F0F7
:105600005EFA0325284603B0F0BD38B50446812173
:1056100000F0DAFF002525870121204600F0D4FFA5
:10562000A4F878518221204600F0CEFFA4F84C5017
:10563000A4F84E50D4F8BC324BB1D4F8C0325B68F9
:105640009847D4F8BC0201F021F8C4F8BC520020FD
:1056500038BD70B504464FF4077001F00FF8B8B3C9
:105660000646C4F8BC02237CBBBB4FF40073022285
:105670008121204600F09DFF012525874FF400730E
:1056800002222946204600F094FFA4F87851102306
:10569000A4F84E30082303228221204600F089FF1F
:1056A0000123A4F84C30D4F8C0321B68984700237B
:1056B000C6F81432C6F81832257C15BB4FF40073B7
:1056C000D6F804220121204600F0A6FF284670BD2E
:1056D0000023C4F8BC320225F8E7402302228121CE
:1056E000204600F066FF0125258740230222294637
:1056F000204600F05EFFA4F878511023A4F84E3045
:10570000C8E74023D6F804220121204600F084FF98
:105710000025DBE719B1C0F8C01200207047032054
:105720007047D0F8BC32C3F80812C3F8102200202A
:105730007047D0F8BC32C3F8041200207047D0F88C
:10574000BC22A2B108B5D2F814320BB1012008BDB9
:105750000123C2F81432D2F81032C362D2F81032E8
:10576000D2F80822812100F04FFF0020EFE703204C
:10577000704710B5D0F8BC2292B1047C44B94FF404
:105780000073D2F80422012100F046FF204610BD2C
:105790004023D2F80422012100F03EFF0024F5E767
:1057A0000324F3E7C0B108B50346D0F8B80210B13E
:1057B0000020C3F8B802D3F8CC0210B10020C3F81F
:1057C000CC0209B1C3F8B412012183F89C121A70FB
:1057D000184600F08BFE08BD0320704710B582B05C
:1057E0000023ADF8063059B10446C0F8B8128B6AF0
:1057F0000DF106009847C4F8CC02002002B010BD9D
:105800000320FBE708B500F0CCFE08BD08B5D0F8D2
:10581000B83213B11B68984708BD0320FCE708B5F0
:10582000D0F8B8320BB15B689847002008BD38B596
:10583000044600F2AA25284600F02DF90123C4F8F9
:105840009432B4F8B032C4F8983294F8AA1201F045
:105850001F03012B0DD0022B10D02BB101F08001C2
:10586000204600F0B9FE03E02946204600F0CEFABB
:1058700038BD2946204600F001FBF9E729462046BD
:1058800000F030FBF4E738B504460D4631BB134653
:10589000D0F89422032A01D0084638BDD0F85C1114
:1058A000D0F8602191420CD8D0F8B8321B691BB1F6
:1058B00090F89C22032A0FD0204600F04CFC28468A
:1058C000EBE7891AC0F85C118A4228BF0A461946DC
:1058D00000F039FC2846E0E79847EDE7D0F8B83209
:1058E0009B692BB190F89C22032A03D19847D4E7F7
:1058F0000320D2E70320D0E738B504460D4600293F
:1059000048D11346D0F89422022A05D094F8A03248
:10591000012B3AD0284638BDC269016A8A4211D8A3
:105920008A421BD0D4F8B832DB681BB194F89C22B1
:10593000032A27D08021204600F04EFE204600F0AA
:1059400015FCE3E7521AC261194600F0E5FB00239B
:105950001A461946204600F05FFED7E78369994250
:10596000E0D8D0F898229342DCD20022114600F011
:10597000D3FB0021C4F898120B460A46204600F0DB
:105980004BFEC3E720469847D4E7002384F8A032B3
:105990002846C0E7D0F8B8325B692BB190F89C225A
:1059A000032A03D19847B6E70320B4E70320B2E700
:1059B00070B50446012380F89C320023C0F894326D
:1059C0004360C0F8A432D0F8BC3223B1D0F8B8326A
:1059D0005B6800219847402300221146204600F0D2
:1059E000E8FD0126A4F864614025C4F860512B4607
:1059F00000228021204600F0DCFDA68425620020E4
:105A000070BD01740020704790F89C3280F89D3280
:105A1000042380F89C320020704790F89C32042BBD
:105A200001D00020704790F89D3280F89C32F8E752
:105A300008B590F89C32032B01D0002008BDD0F8A7
:105A4000B832DB69002BF8D09847F6E700207047A2
:105A5000002070470020704708B5012380F89C3271
:105A6000D0F8B83213B15B6801799847002008BDBF
:105A7000034600201A781AB10130C0B20133F9E7A9
:105A8000704708B54B88012B00D008BDC0F8A43280
:105A900000F061FBF9E70B7803704B7843708B786B
:105AA000CA7843EA022343800B794A7943EA022306
:105AB00083808B79CA7943EA0223C380704710B58B
:105AC0000446802100F088FD0021204600F084FD7E
:105AD00010BD30B583B004460D460023ADF8063046
:105AE0004A88130A013B062B00F2AB80DFE803F083
:105AF000041F33A9A98D9A00D0F8B4321B680DF1A8
